:030000000207CC28
:0C07CC00787FE4F6D8FD75813002081338
:10096000021E0000022F0000021C0000021A0000FC
:10097000021800000B223F065B4F666D7D077F6FFC
:1009800040020C0000020E0000020A0000022D00CE
:010990000066
:100921007F50120951E4F580C2A0D2A1C2A2852C48
:1009310080120951E4F580D2A0C2A1C2A2AE08AFD3
:1009410009FC7D0A1208CC74222FF8E6F5807F504D
:0E095100E4FEEEC39F50077D0DDDFE0E80F428
:01095F002275
:0F099200C2B77F0A7E001209A1D2B77F0A7E008A
:1009A100D3EF9400EE940040147D657C18ED1D702A
:0D09B100011CED4C70F7EF1F70E61E80E397
:0109BE002216
:10072D00E4F580D2A0D2A1D2A2AE16AF1712094223
:10073D00E4F580C2A0D2A1D2A2AE16AF17FC7D0AFD
:10074D001208CC74222D12094BE4F580D2A0C2A15F
:10075D00D2A2852C80120951E4F580C2A0C2A1D28B
:10076D00A2AE14AF15120942E4F580D2A0D2A1C2F7
:10077D00A2AE14AF15FC7D0A1208CC74222D1209FD
:10078D004BE4F580C2A0D2A1C2A2852C80120951E2
:10079D00E4F580D2A0C2A1C2A2AE0CAF0D120942E7
:1007AD00E4F580C2A0C2A1C2A2AE0CAF0DFC7D0AC1
:0F07BD001208CC74222DF8E6F5807F5002095106
:10024D00051FE51F7002051EE4F580D2A0D2A1D2D4
:10025D00A2E51B6401451A703AD3E51F9419E51EFA
:10026D00940050028045D3E51F9419E51E9400407B
:10027D0010D3E51F9432E51E94005005E4F58080FF
:10028D003CD3E51F9432E51E94004031E4F51EF594
:10029D001F802AE51B6402451A6010E51B640345A7
:1002AD001A6008E51B6404451A7012AE12AF137C78
:1002BD00007D0A1208CC74222FF8E6F5807F5012CB
:1002CD000951E4F580C2A0D2A1D2A2E51B6402457A
:1002DD001A703AD3E51F9419E51E9400500280451B
:1002ED00D3E51F9419E51E94004010D3E51F9432F9
:1002FD00E51E94005005E4F580803CD3E51F943253
:10030D00E51E94004031E4F51EF51F802AE51B64BF
:10031D0001451A6010E51B6403451A6008E51B646E
:10032D0004451A7012AE12AF137C007D0A1208CC70
:10033D0074222DF8E6F5807F50120951E4F580D234
:10034D00A0C2A1D2A2852C80120951E4F580C2A0D1
:10035D00C2A1D2A2E51B6403451A703AD3E51F94DE
:10036D0019E51E940050028045D3E51F9419E51E32
:10037D0094004010D3E51F9432E51E94005005E41F
:10038D00F580803CD3E51F9432E51E94004031E4A6
:10039D00F51EF51F802AE51B6401451A6010E51B4B
:1003AD006402451A6008E51B6404451A7012AE100C
:1003BD00AF117C007D0A1208CC74222FF8E6F5806F
:1003CD007F50120951E4F580D2A0D2A1C2A2E51B43
:1003DD006404451A703AD3E51F9419E51E94005034
:1003ED00028045D3E51F9419E51E94004010D3E516
:1003FD001F9432E51E94005005E4F580803CD3E552
:10040D001F9432E51E94004031E4F51EF51F802A3D
:10041D00E51B6401451A6010E51B6402451A60086E
:10042D00E51B6403451A7012AE10AF117C007D0AF6
:10043D001208CC74222DF8E6F580120921E4F5801E
:10044D00C2A0C2A1C2A2AE08AF09FC7D0A1208CC9F
:0C045D0074222DF8E6F5807F5002095152
:100469000530E5307002052FE4F580D2A0D2A1D283
:10047900A2E51B6405451A703AD3E5309419E52FB6
:10048900940050028045D3E5309419E52F9400403B
:1004990010D3E5309432E52F94005005E4F58080BF
:1004A9003CD3E5309432E52F94004031E4F52FF543
:1004B90030802AE51B6406451A6010E51B64074570
:1004C9001A6008E51B6408451A7012AE0EAF0F7C5E
:1004D900007D0A1208CC74222FF8E6F5807F5012AD
:1004E9000951E4F580C2A0D2A1D2A2E51B64064558
:1004F9001A703AD3E5309419E52F940050028045DB
:10050900D3E5309419E52F94004010D3E5309432A7
:10051900E52F94005005E4F580803CD3E530943212
:10052900E52F94004031E4F52FF530802AE51B646E
:1005390005451A6010E51B6407451A6008E51B6448
:1005490008451A7012AE0EAF0F7C007D0A1208CC56
:1005590074222DF8E6F5807F50120951E4F580D216
:10056900A0C2A1D2A2852C80120951E4F580C2A0B3
:10057900C2A1D2A2E51B6407451A703AD3E53094AB
:1005890019E52F940050028045D3E5309419E52FE1
:1005990094004010D3E5309432E52F94005005E4DF
:1005A900F580803CD3E5309432E52F94004031E466
:1005B900F52FF530802AE51B6405451A6010E51B07
:1005C9006406451A6008E51B6408451A7012AE0AEC
:1005D900AF0B7C007D0A1208CC74222FF8E6F58057
:1005E9007F50120951E4F580D2A0D2A1C2A2E51B25
:1005F9006408451A703AD3E5309419E52F940050F0
:10060900028045D3E5309419E52F94004010D3E5D5
:10061900309432E52F94005005E4F580803CD3E511
:10062900309432E52F94004031E4F52FF530802ADB
:10063900E51B6405451A6010E51B6406451A600848
:10064900E51B6407451A7012AE0AAF0B7C007D0AE0
:100659001208CC74222DF8E6F580120921E4F58000
:10066900C2A0C2A1C2A2AE08AF09FC7D0A1208CC81
:0C06790074222DF8E6F5807F5002095134
:10000E0020903B051BE51B7002051A6401451A7012
:10001E000E851612851713851410851511801CC3B5
:10002E00E51B9409E51A94004011851216851317E5
:10003E00851014851115E4F51AF51B3090FD3091DD
:10004E000302014AC3E513940EE51294005016E51F
:10005E001B6401451A700E740A2513F513E435124C
:10006E00F512020147E51B6402451A7016C3E5132B
:10007E009418E5129400500B0513E5137041051208
:10008E00020147E51B6403451A7019C3E51194324A
:10009E00E5109400500E740A2511F511E43510F593
:1000AE0010020147E51B6404451A7015C3E511944F
:1000BE003CE5109400500A0511E511700205108000
:1000CE0078C3E50F940EE50E94005015E51B6405FC
:1000DE00451A700D740A250FF50FE4350EF50E80D6
:1000EE0058E51B6406451A7015C3E50F9418E50E06
:1000FE009400500A050FE50F703F050E803BE51B7F
:10010E006407451A7018C3E50B9432E50A94005043
:10011E000D740A250BF50BE4350AF50A801BE51B59
:10012E006408451A7013C3E50B943CE50A9400501D
:10013E0008050BE50B7002050A3091FD30920302A3
:10014E00024CD3E513940AE51294004017E51B64A4
:10015E0001451A700F74F62513F51374FF3512F559
:10016E0012020249E51B6402451A7016D3E5139478
:10017E0000E5129400400BE51315137042151202A0
:10018E000249E51B6403451A701AD3E511940AE57A
:10019E00109400400F74F62511F51174FF3510F50B
:1001AE0010020249E51B6404451A7015D3E511943B
:1001BE0000E5109400400AE511151170021510802B
:1001CE007AD3E50F940AE50E94004016E51B6405FC
:1001DE00451A700E74F6250FF50F74FF350EF50ED9
:1001EE008059E51B6406451A7015D3E50F9400E59A
:1001FE000E9400400AE50F150F7002150E803CE5B7
:10020E001B6407451A7019D3E50B940AE50A94008E
:10021E00400E74F6250BF50B74FF350AF50A801B9C
:10022E00E51B6408451A7013D3E50B9400E50A9498
:0F023E00004008E50B150B7002150A3092FD22E7
:1009BF00758901758C3C758AB0D2AFD2A9D28C22C1
:10068500C2B71209BF12000EE51B451A7005120705
:100695002D8048E51B6401451A6018E51B64024579
:1006A5001A6010E51B6403451A6008E51B640445E0
:1006B5001A700512024D8023E51B6405451A601862
:1006C500E51B6406451A6010E51B6407451A6008BA
:1006D500E51B6408451A7003120469E50F65177078
:1006E50004E50E65167024E50B65157004E50A65CD
:1006F500147018E52E6401452D7010D2B77F0AFEDF
:100705001209A1120992120992C2B7E519640145AD
:1007150018600302068AD2B77F14FE1209A1C2B778
:08072500E4F518F51902068A3B
:03000B0002085890
:10085800C0E0C0D0758C3C758AB0051DE51D7002DE
:10086800051CC39414E51C94004054751C00751DA8
:1008780000050DE50D7002050C943CE50C94004054
:100888003E750C00750D000515E51570020514750B
:100898002D00752E01943CE5149400402275140037
:1008A8007515000517E517700205167518007519F6
:1008B800019418E51694004006751600751700D0C7
:0408C800D0D0E0327A
:1007D800020685E493A3F8E493A34003F68001F2AC
:1007E80008DFF48029E493A3F85407240CC8C33322
:1007F800C4540F4420C8834004F456800146F6DFF1
:10080800E4800B0102040810204080900960E47E17
:10081800019360BCA3FF543F30E509541FFEE493E5
:10082800A360010ECF54C025E060A840B8E493A3AC
:10083800FAE493A3F8E493A3C8C582C8CAC583CAD7
:10084800F0A3C8C582C8CAC583CADFE9DEE780BE8F
:010991000065
:1008CC00BC000BBE0029EF8DF084FFADF022E4CC10
:1008DC00F875F008EF2FFFEE33FEEC33FCEE9DECD9
:1008EC00984005FCEE9DFE0FD5F0E9E4CEFD22ED1F
:1008FC00F8F5F0EE8420D21CFEADF075F008EF2F69
:10090C00FFED33FD4007985006D5F0F222C398FD59
:05091C000FD5F0EA22F6
:00000001FF
