:03000000020D33BB
:0C0D3300787FE4F6D8FD758119020D20D0
:100D0A003F065B4F666D7D077F6F403F377100047A
:060D1A00020601050307BB
:100C8F00900D18E493F5A0AE0CAF0D7C007D0A1209
:100C9F000C04740A2DF582740D3CF583E493F580F2
:100CAF007F027E00120CECE4F5807F02FE120CEC4A
:100CBF00900D1CE493F5A0AE0CAF0D7C007D0A12D5
:100CCF000C04740A2FF582740D3EF583E493F580BE
:0D0CDF007F027E00120CECE4F5807F02FE27
:100CEC00D3EF9400EE940040147D6E7C00ED1D70EB
:0D0CFC00011CED4C70F7EF1F70E61E80E349
:010D090022C7
:100994007B327A00C2B7751800751914E519151958
:1009A400AE18700215184E70F3D2B7751800751989
:1009B40014AE0EAF0F7C007D0A120C04740A2DF5E0
:1009C40082740D3C120CD9900D19E493F5A0AE0E6F
:1009D400AF0F120CCA120C8FEB1B70011AEB4A708A
:1009E400B3E51564034514702A900D1B93F5A0AE6E
:1009F40016AF177C007D0A120C04740A2DF582745C
:100A04000D3C120CD9900D1FE493F5A0AE16AF1750
:100A1400120CCAE51564044514702A900D1E93F552
:100A2400A0AE12AF137C007D0A120C04740A2DF5DB
:100A340082740D3C120CD9900D19E493F5A0AE12FA
:100A4400AF13120CCAE51564054514703FE509455A
:100A540008601A900D18E493F5A0900D16120CDBA3
:100A6400900D1CE493F5A0900D15120CDBE50945DF
:100A7400087019900D1893F5A0900D17120CDB90C7
:0C0A84000D1CE493F5A0900D15120CDB86
:010A90002243
:100800002090217F0F7E00120CEC2090170515E53B
:1008100015700205143090FDE5156406451470044A
:10082000F514F515E51564014514704A2091207FF3
:100830000FFE120CEC2091170511E5117002051046
:100840003091FDE511641845107004F510F5112084
:1008500092247F0F7E00120CEC20921AE5111511E4
:10086000700215103092FDC3E5106480948050062C
:10087000751000751117E515640245147054209128
:10088000257F0FFE120CEC20911C050FE50F700266
:10089000050EE4F50CF50D3091FDE50F643C450EB9
:1008A0007004F50EF50F2092297F0F7E00120CECDC
:1008B00020921FE50F150F7002150EE4F50CF50DD3
:1008C0003092FDC3E50E648094805006750E00756D
:1008D0000F3BE51564034514704A2091207F0FFEFD
:1008E000120CEC2091170517E517700205163091D0
:1008F000FDE517641845167004F516F517209224C7
:100900007F0F7E00120CEC20921AE517151770026B
:1009100015163092FDC3E516648094805006751656
:1009200000751717E51564044514704A2091207F5F
:100930000FFE120CEC2091170513E513700205123F
:100940003091FDE513643C45127004F512F5132057
:1009500092247F0F7E00120CEC20921AE5131513DF
:10096000700215123092FDC3E51264809480500627
:1009700075120075133BE51564054514701520913B
:10098000127F0FFE120CEC2091096309FF6308FF30
:040990003091FD2283
:100B6F00120C8F900D1AE493F5A0900D14120CDB5C
:100B7F00900D1EE493F5A0AE0EAF0F7C007D0A1210
:100B8F000C04740A2DF582740D3C120CD9900D19BA
:100B9F00E493F5A0AE0EAF0F120CCA900D1DE493A7
:100BAF00F5A0900D14120CDB900D1BE493F5A0AE85
:100BBF0010AF117C007D0A120C04740A2DF582749B
:100BCF000D3C120CD9900D1FE493F5A0AE10AF1190
:100BDF007C007D0A120C04740A2FF582740D3EF509
:100BEF0083E493F5807F027E00120CECE4F5807FA6
:050BFF0002FE020CECF7
:100D2000E4F508F509120800E515451470F7120BF3
:030D30006F80F2DF
:03000B00020A9155
:100A9100C0E0C0F0C083C082C0D075D000C000C02B
:100AA10002C003C004C005C006C007758C3C758A2E
:100AB100B0050BE50B7002050A6414450A703FF599
:100AC1000AF50B050DE50D7002050C643C450C7033
:100AD1002DF50CF50D050FE50F7002050E643C4573
:100AE1000E701BF50EF50F0511E5117002051012C0
:100AF1000994E511641845107004F510F511E50F1E
:100B0100B51309E50EB512047F0180027F00E511DE
:100B1100B51709E510B516047E0180027E00EE5F6F
:100B2100FFE509450860047E0180027E00EE5FFF5B
:100B3100E5132401FDE43512FCC3E50F9DEC64804F
:100B4100F8E50E64809850047E0180027E00EE5F1D
:100B51006003120994D007D006D005D004D003D089
:0E0B610002D000D0D0D082D083D0F0D0E032CD
:100C0400C2D5EC30E709B2D5E4C39DFDE49CFCEE0B
:100C140030E715B2D5E4C39FFFE49EFE120C3AC33D
:100C2400E49DFDE49CFC8003120C3A30D507C3E438
:060C34009FFFE49EFE227A
:100C3A00BC000BBE0029EF8DF084FFADF022E4CC9E
:100C4A00F875F008EF2FFFEE33FEEC33FCEE9DEC67
:100C5A00984005FCEE9DFE0FD5F0E9E4CEFD22EDAD
:100C6A00F8F5F0EE8420D21CFEADF075F008EF2FF7
:100C7A00FFED33FD4007985006D5F0F222C398FDE8
:050C8A000FD5F0EA2285
:00000001FF
